:100000000C9448000C9465000C9465000C946500F9
:100010000C9465000C9465000C9465000C946500CC
:100020000C9465000C9465000C9465000C946500BC
:100030000C943A020C9465000C9465000C946500D5
:100040000C9465000C9465000C9465000C9465009C
:100050000C9465000C9465000C9465000C9465008C
:100060000C9465000C9465000C9465000C9465007C
:100070000C9465000C9465000C9465000C94D70AF0
:100080000C94000B0C9465000C9465000C946500B6
:1000900011241FBECFEFCDBFDFE3DEBF18E2A0E02B
:1000A000B8E2E7E0FDE102C005900D92A436B10789
:1000B000D9F720E3A4E6B8E201C01D92A53FB2073C
:1000C000E1F70E94A0090C94550E0C9400000E94C8
:1000D0008D0A0895CF93DF9300D0CDB7DEB7198294
:1000E0001A8244E650E0BE016F5F7F4F8091EB3093
:1000F0009091EC300E948904813099F709811A812E
:1001000064ED7CE5C8010E94740B892B29F48EEA0A
:100110009CE50E94F009E5CF60EC7CE5C8010E94F7
:10012000740B892B29F485EC9CE50E94F009D9CF4A
:1001300060ED7CE5C8010E94740B892B29F485ECE5
:100140009CE50E94F009CDCF6CED7CE5C8010E94D2
:10015000740B892B29F485EC9CE50E94F009C1CF32
:10016000C8010E94F009BDCFFC01039681839283F0
:100170002FEF3FEF23833483858396838783908794
:1001800010820895FC01108611860895CF93DF93A5
:100190009C01FB01DC011196CD91DC911297C28389
:1001A000D3838C819D81848395838C819D81DC01A7
:1001B00012966D937C9313976C837D832087318790
:1001C000F90180818F5F8083DF91CF910895CF9374
:1001D000DF93EB01488159814F3F2FEF520721F404
:1001E000FC01A781B0850DC0DC01139601C0DF01C1
:1001F0001296ED91FC91139720813181421753079C
:10020000B0F71296ED91FC911397EA83FB83C483B8
:10021000D583AC83BD831296CD93DC9313978887E7
:100220009987FC0120812F5F2083DF91CF91089572
:10023000CF93DF93FC01A085B185C281D3818481F6
:1002400095818C839D83C481D581828193818A83AA
:100250009B8311968D919C911297E817F90731F4C1
:100260008481958111968D939C93129710861186A7
:100270008C9181508C938C91DF91CF910895FC01EA
:1002800060833197708331971082319720E8208303
:1002900031971082779740833197508383970895E1
:1002A000E0E8FAE080E197E28487958781E0858342
:1002B0008083A091C230B091C330CD91CDBFDD918C
:1002C000DEBFFF91EF91DF91CF91BF91AF919F91F1
:1002D0008F917F916F915F914F913F912F911F91DE
:1002E0000F91FF90EF90DF90CF90BF90AF909F90D5
:1002F0008F907F906F905F904F903F902F901F90C6
:100300000F900FBE0F90089508950F920FB6F894B6
:100310000F921F9211242F923F924F925F926F92F1
:100320007F928F929F92AF92BF92CF92DF92EF9285
:10033000FF920F931F932F933F934F935F936F936E
:100340007F938F939F93AF93BF93CF93DF93EF935D
:10035000FF93A091C230B091C3300DB60D920EB68E
:100360000D920E942108A091C230B091C330CD916E
:10037000CDBFDD91DEBFFF91EF91DF91CF91BF91B6
:10038000AF919F918F917F916F915F914F913F912D
:100390002F911F910F91FF90EF90DF90CF90BF9022
:1003A000AF909F908F907F906F905F904F903F9015
:1003B0002F901F900F900FBE0F9008950F920FB6C1
:1003C000F8940F921F9211242F923F924F925F92B6
:1003D0006F927F928F929F92AF92BF92CF92DF9255
:1003E000EF92FF920F931F932F933F934F935F933F
:1003F0006F937F938F939F93AF93BF93CF93DF932D
:10040000EF93FF93A091C230B091C3300DB60D921F
:100410000EB60D920E94D60681110E942108A0916D
:10042000C230B091C330CD91CDBFDD91DEBFFF9121
:10043000EF91DF91CF91BF91AF919F918F917F917C
:100440006F915F914F913F912F911F910F91FF906D
:10045000EF90DF90CF90BF90AF909F908F907F9064
:100460006F905F904F903F902F901F900F900FBE16
:100470000F9018950F9301E00093860A0F910E9448
:10048000DE011895CF93DF93EC010E94D006809196
:10049000642890916528892B31F489E698E280934D
:1004A0006428909365282091662830916728C901B7
:1004B0008C0F9D1F8F3F47E0940770F42817390772
:1004C00070F4C0916428D0916528C20FD31F809327
:1004D00066289093672805C0C0E0D0E002C0C0E065
:1004E000D0E00E948E07CE01DF91CF91089508954C
:1004F0000FB6F8940F92FC01928D0F900FBE81E021
:10050000911180E008950F931F93CF93DF93EC0137
:10051000042F1A8D4C8D41110CC088819981892B33
:1005200009F042C08A819B810E9426091A821B829F
:1005300042C0011117C050E08C819D810E946B0B5D
:100540002C8D8C819D81820F911D8C839D832A81AE
:100550003B818217930750F1888199818C839D8319
:1005600080E029C050E08E819F810E946B0B8C8DB2
:1005700090E09195819591092E813F81280F391F37
:100580002E833F83488159812417350730F42A810F
:100590003B81820F931F8E839F83023049F4112386
:1005A00049F0115080E007C080E005C080E003C042
:1005B00080E001C080E01F5F1A8FDF91CF911F9113
:1005C0000F910895FC01448D4423A9F050E0268149
:1005D0003781240F351F2683378382819381281723
:1005E000390720F08081918186839783CB016681D2
:1005F00077810E946B0B0895EF92FF920F931F93E8
:10060000CF938C010FB6F8940F92FC01C68D1C1687
:10061000ACF48189811106C011C0F8018189811172
:1006200005C00CC07801F1E1EF0EF11CC7010E947A
:10063000990881110E942209C15079F78FEFF801C2
:10064000868F0F900FBE0FB6F8940F92C58D1C16B3
:10065000ACF48085811106C011C0F801808581113C
:1006600005C00CC07801F8E0EF0EF11CC7010E9434
:10067000990881110E942209C15079F78FEFF80182
:10068000858F0F900FBECF911F910F91FF90EF902C
:100690000895CF93DF93EC010FB6F8940F92488141
:1006A00059812C8D30E07B8D729FC001739F900D1E
:1006B0001124FA01E80FF91FEA83FB831A8E4C8399
:1006C0005D83821B930B840F951F8E839F838FEF17
:1006D0008D8F8E8F61110CC08885882389F0CE01A3
:1006E00008960E949908882359F00E94850108C045
:1006F000CE0108960E94B400CE0141960E94B4003B
:100700000F900FBE81E0DF91CF9108950F931F935B
:10071000CF93DF93082F162F6623C1F0869FC00169
:1007200011244F960E944202EC01009741F415C03B
:100730000B8F1C8F61E0CE010E9449030EC04F96C3
:1007400088839983F5CFC883D983F2CF8FE190E076
:100750000E944202EC01892BB1F7CE01DF91CF91CB
:100760001F910F910895AF92BF92CF92DF92EF92B7
:10077000FF920F931F93CF93DF93CDB7DEB72597EB
:10078000CDBFDEBF8C016B014C835D83A22EB12CEB
:100790007C0188E0E80EF11C0FB6F8940F92F80186
:1007A000928D838D981718F0F2E0AF1219C04A2D80
:1007B000B601C8010E948302F8019189992349F08A
:1007C000C80141960E949908882331F00E94850152
:1007D00003C081110E9485010F900FBE81E051C0BE
:1007E0008C819D81892B21F40F900FBE80E049C040
:1007F000B11006C0CE0101960E94E108BB24B3945B
:100800000F900FBE0E94D0060FB6F8940F92F80119
:10081000858D8F3F09F4158EF801868D8F3F09F481
:10082000168E0F900FBEBE016C5F7F4FCE010196FA
:100830000E94EC0881111FC00FB6F8940F92F801C6
:10084000928D0F900FBE838D98130FC06C817D81A8
:10085000C7010E948708C8010E94FC020E948E07FF
:1008600081119ACF0E94850197CFC8010E94FC0296
:100870000E948E0791CFC8010E94FC020E948E0741
:1008800080E02596CDBFDEBFDF91CF911F910F9104
:10089000FF90EF90DF90CF90BF90AF900895EF92D0
:1008A000FF920F931F93CF93DF938A01FC01528D28
:1008B000338D531710F02230F1F4422F7801EC0100
:1008C0001E8D0E9483021F3F81F489898823A9F02D
:1008D000CE0141960E949908882389F0E114F10421
:1008E00081F081E0F70180830DC0FF24F394F10EC5
:1008F000FE8E81E007C080E005C081E003C081E09A
:1009000001C081E0DF91CF911F910F91FF90EF9097
:100910000895AF92BF92CF92DF92EF92FF920F9322
:100920001F93CF93DF93CDB7DEB72597CDBFDEBF43
:100930008C015B014C835D83E12C6C0181E1C80E6D
:10094000D11C0FB6F8940F92F801F28CFF20A9F099
:10095000B501C8010E94E202FA94F801F28E808586
:10096000882339F0C80108960E94990881110E94D5
:1009700085010F900FBE81E052C08C819D81892B33
:1009800021F40F900FBE80E04AC0E11006C0CE01F6
:1009900001960E94E108EE24E3940F900FBE0E949E
:1009A000D0060FB6F8940F92F801858D8F3F09F4A9
:1009B000158EF801868D8F3F09F4168E0F900FBEAD
:1009C000BE016C5F7F4FCE0101960E94EC08811141
:1009D0001AC0C8010E947802882379F06C817D8159
:1009E000C6010E948708C8010E94FC020E948E076F
:1009F0008111A7CF0E948501A4CFC8010E94FC02EB
:100A00000E948E079ECFC8010E94FC020E948E07A2
:100A1000C8010E947802882309F493CF80E02596CC
:100A2000CDBFDEBFDF91CF911F910F91FF90EF906F
:100A3000DF90CF90BF90AF900895E0918A30F09111
:100A40008B308081811107C08FEF9FEF80936B30D7
:100A500090936C300895E0918A30F0918B3005804E
:100A6000F681E02D0680F781E02D828193818093CD
:100A70006B3090936C300895CEE9D0E3888182305A
:100A8000E8F30E948501FACFFF920F931F93CF9353
:100A9000DF93EC01F62E0091733010917430809149
:100AA000C2309091C33002960E941801CF3F8FEF61
:100AB000D80769F4FF2059F06091C2307091C330BB
:100AC0006E5F7F4F86E790E30E94C6002FC0C00F85
:100AD000D11FE091C230F091C330C283D383C017DD
:100AE000D10768F46091C2307091C3308091883032
:100AF000909189306E5F7F4F0E94E70017C0609130
:100B0000C2307091C33080918A3090918B306E5F8B
:100B10007F4F0E94E70080916B3090916C30C81736
:100B2000D90720F4C0936B30D0936C30DF91CF9114
:100B30001F910F91FF9008954F925F926F927F9255
:100B40008F929F92AF92BF92CF92DF92EF92FF92DD
:100B50000F93CF93DF934C016B015A012901CA0116
:100B60000E9442023C01892B09F4DFC088E290E038
:100B70000E944202EC01892B71F06F8A788E81E02D
:100B8000A81AB1086A0C7B1CD6018C91898F8C91B4
:100B9000811105C018C0C3010E947702C6C0AE0112
:100BA000465E5F4FF6013196B8E0CB0ED11CCF0107
:100BB0002191DA012D93AD01DC018C91882319F08C
:100BC000EC15FD05A1F718A2043008F003E00E8B28
:100BD00009A31AA26E01B2E0CB0ED11CC6010E947D
:100BE000C200CE010C960E94C200C887D98784E05B
:100BF00090E0801B91098C879D87CA8BDB8B1BA2A1
:100C00001CA21DA21EA21FA2A201B401C3010E9428
:100C10003F0188839983E114F10419F0F701C0833F
:100C2000D1830FB6F8940F92809175308F5F8093C7
:100C300075308091C2309091C330892BA9F5C09353
:100C4000C230D093C330809175308130E9F58EE9A0
:100C500090E30E94B40087EA90E30E94B40080EB26
:100C600090E30E94B40089EB90E30E94B40085E910
:100C700090E30E94B4008CE890E30E94B4008FE7F8
:100C800090E30E94B40086E790E30E94B40085E9F7
:100C900090E380938A3090938B308CE890E380933C
:100CA00088309093893010C08091713081110CC0D0
:100CB000E091C230F091C33096898E89891720F077
:100CC000C093C230D093C33080916D308F5F8093DA
:100CD0006D308E8990917230981710F48093723035
:100CE00090E09C01220F331F220F331F220F331F6E
:100CF000820F931FB60182569F4C0E94C6000F9030
:100D00000FBE80917130882361F0E091C230F09184
:100D1000C33096898E89981730F40E94850181E04E
:100D200005C081E003C081E001C08FEFDF91CF916A
:100D30000F91FF90EF90DF90CF90BF90AF909F907A
:100D40008F907F906F905F904F900895EF92FF92F9
:100D50000F930F2EF9E6EF2EF0E3FF2EF02D00E0BB
:100D600020E030E043E750E066EE7CE58CE395E080
:100D70000E949C05813081F4F8948FEF9FEF80935F
:100D80006B3090936C3081E08093713010927330AF
:100D9000109274300E9450010F91FF90EF900895CF
:100DA000809168308F5F809368300895DF92EF9272
:100DB000FF920F931F93CF93DF938091683081113F
:100DC00098C0E0907330F09074308FEFE81AF80A12
:100DD000E0927330F0927430E114F104B9F4809130
:100DE0008A3090918B3020918830309189302093D7
:100DF0008A3030938B308093883090938930809103
:100E00006E308F5F80936E300E941D0580916B3035
:100E100090916C30E816F90610F4D12C52C0D12C08
:100E2000E0918A30F0918B308081811107C08FEF83
:100E30009FEF80936B3090936C3043C0E0918A3089
:100E4000F0918B300580F681E02DC681D7818A81B3
:100E50009B81E816F90628F480936B3090936C30F0
:100E600030C08E010E5F1F4FC8010E9418018C898F
:100E70009D89892B21F0CE010C960E9418018E8944
:100E800090917230981710F48093723090E09C012A
:100E9000220F331F220F331F220F331F820F931F86
:100EA000B80182569F4C0E94C600E091C230F0917A
:100EB000C3309E898689981708F4B2CFDD24D39475
:100EC000AFCFE091C230F091C330868990E0FC0151
:100ED000EE0FFF1FEE0FFF1FEE0FFF1F8E0F9F1F66
:100EE000FC01E256FF4C8081823048F0DD24D3942F
:100EF00006C0809170308F5F80937030D12C8091CC
:100F00006F30882311F0DD24D3948D2DDF91CF91A4
:100F10001F910F91FF90EF90DF900895DF92EF9275
:100F2000FF920F931F93CF93DF930FB6F8940F9216
:100F30008091683081508093683080916830811151
:100F40005FC080917530811133C05DC0D7011596A7
:100F5000ED91FC911697C681D781CE010C960E9427
:100F600018018E010E5F1F4FC8010E9418018E8963
:100F700090917230981710F48093723090E09C0139
:100F8000220F331F220F331F220F331F820F931F95
:100F9000B80182569F4C0E94C600E091C230F09189
:100FA000C3309E898689981768F0D0926F300AC046
:100FB000C0E0D0E00F2EFFE7EF2EF0E3FF2EF02D84
:100FC000DD24D394F70180818111C0CFCD2B11F0A6
:100FD0000E941D05C0917030CC2351F0D1E00E94D9
:100FE000D6068111D0936F30C150C9F7109270307E
:100FF00080916F30882331F00E94850181E003C029
:1010000080E001C080E00F900FBEDF91CF911F9173
:101010000F91FF90EF90DF900895CF93DF93EC0155
:10102000892B51F00E94D00660E0CE010E94440559
:101030000E948E07811102C00E948501DF91CF912D
:10104000089580916830882321F081E080936F308B
:10105000089510926F3020917230822F90E0FC0141
:10106000EE0FFF1FEE0FFF1FEE0FFF1FE80FF91F20
:10107000E256FF4C3081311111C02150822F90E097
:10108000FC01EE0FFF1FEE0FFF1FEE0FFF1FE80F1B
:10109000F91FE256FF4C3081332379F3AC01440F42
:1010A000551F440F551F440F551F480F591FDA0194
:1010B000A256BF4C1196ED91FC9112970280F381DC
:1010C000E02D1196ED93FC9312974F555F4CE4176A
:1010D000F50729F442815381FD0141835283FC01CC
:1010E000EE0FFF1FEE0FFF1FEE0FFF1F8E0F9F1F54
:1010F000FC01E256FF4C0180F281E02D8681978150
:101100008093C2309093C330209372300895CF9370
:10111000DF93EB016091C2307091C330645F7F4F09
:101120000E94E70061E0CE010E944405DF91CF916B
:1011300008950F931F93CF93DF93DC011596ED91E4
:10114000FC911697C681D7818E01045F1F4FC8019D
:101150000E9418018091683081111CC00A50110949
:10116000C8010E9418018E8990917230981710F46E
:101170008093723090E09C01220F331F220F331FA7
:10118000220F331F820F931FB80182569F4C0E947B
:10119000C60005C0B8018FE790E30E94C600E09149
:1011A000C230F091C3309E898689891720F481E08E
:1011B00080936F3001C080E0DF91CF911F910F913C
:1011C000089520916E30FC0120832091733030917E
:1011D0007430218332830895CF93DF930FB6F89450
:1011E0000F922091733030917430DB014D915C91FE
:1011F0004F3FBFEF5B07F1F0EC01E981FA81A0916D
:101200006E30B881BA1719F02E173F07A8F42E1BBD
:101210003F0B2417350748F4FB01421B530B408357
:1012200051830E94E10880E008C0FB011082118216
:1012300081E003C080E001C081E00F900FBEDF912C
:10124000CF91089581E080936F3008950F931F939D
:10125000CF93DF93FC01892B79F182A1815082A386
:10126000268991A1291751F181112AC0EF018F011F
:101270000E5F1F4FC8010E94180189A18E8B24E0C8
:1012800030E0281B31092C873D87909172309817E8
:1012900010F48093723090E09C01220F331F220FD4
:1012A000331F220F331F820F931FB80182569F4CAA
:1012B0000E94C60081E005C080E003C080E001C05C
:1012C00080E0DF91CF911F910F910895CF93DF932D
:1012D00000D0CDB7DEB789839A83E981FA81808116
:1012E000882361F020E040E050E0BE016F5F7F4F57
:1012F0008091ED309091EE300E94B30388EE93E040
:101300000E940D08EACFCF93DF9300D0CDB7DEB7B0
:1013100089839A83E981FA818081882361F020E0C2
:1013200040E050E0BE016F5F7F4F8091ED309091C3
:10133000EE300E94B30384EF91E00E940D08EACFE3
:10134000EF92FF920F930E94670061E08AE19AE0BA
:101350000E94C80A40E062E085E00E948603809314
:10136000ED309093EE3040E062E085E00E9486032D
:101370008093EB309093EC30E12CF12C01E02AE1EA
:1013800038E243E750E06BEE7CE586E699E00E94A8
:101390009C0520E038E243E750E062EF7CE583E81B
:1013A00099E00E949C0502E020E030E043E750E035
:1013B0006EEF7CE581E09AE00E949C0520E030E041
:1013C00043E750E06AEF7CE58AE690E00E949C05E6
:1013D0000E94A60680E090E00F91FF90EF900895A4
:1013E000CF93DF93C82FD92F0E94D006DF93CF93DE
:1013F0000E947D0B0E948E070F900F90DF91CF917E
:101400000895CF93DF9300D0CDB7DEB719821A824B
:1014100044E650E0BE016F5F7F4F8091ED309091C8
:10142000EE300E948904813099F789819A810E9467
:10143000F009EECF80914008E091C43091E09E0F1A
:101440009093C430F0E0EE5CF74D80838A3099F4DD
:10145000E92FF0E0E05DF74D108220E040E050E041
:1014600060E378E28091EB309091EC300E944F0481
:10147000719A1092C430089582E08093890080E0D0
:10148000089541E068ED81E690E00E94A20A80E0C4
:10149000089580E00895E0E1F4E080818860819320
:1014A000E83184E0F807C9F7E0E3F4E08081886080
:1014B0008193E83384E0F807C9F7E0E5F4E0808140
:1014C00088608193E83584E0F807C9F7E0E7F4E045
:1014D000808188608193E83784E0F807C9F7E0E904
:1014E000F4E0808188608193E83984E0F807C9F7E7
:1014F000E0EBF4E0808188608193E83B84E0F807CA
:10150000C9F70895A198E1EBF4E08081877F80839B
:10151000A09AA8980E944D0B08950E944B0A609AC9
:10152000689A619A699A629A6A9A639A6B9A0E9417
:10153000410A0E94820A0E94490A0E94A60A0E9449
:101540003C0A0895FC0164BF4083089580E008953B
:1015500008958091C530882389F0E091C630EF5F0F
:10156000EF71E093C630F0E0E853FF4C8081809348
:1015700042088091C53081508093C5308091C5303C
:10158000811105C0E0E4F8E085818F7D85830895B1
:10159000613019F0623031F00895809354289093AF
:1015A00055280895809352289093532808951F92A8
:1015B0000F920FB60F9211242F933F934F935F9387
:1015C0006F937F938F939F93AF93BF93EF93FF930B
:1015D000E0915428F0915528309709F00995FF9132
:1015E000EF91BF91AF919F918F917F916F915F919B
:1015F0004F913F912F910F900FBE0F901F90189514
:101600001F920F920FB60F9211242F933F934F9377
:101610005F936F937F938F939F93AF93BF93EF935A
:10162000FF93E0915228F0915328309709F00995E3
:10163000FF91EF91BF91AF919F918F917F916F91AA
:101640005F914F913F912F910F900FBE0F901F9080
:1016500018952091C7302F5F2F719091C53090322F
:10166000E1F3E22FF0E0E853FF4C80832093C73092
:101670000FB6F8940F928091C5308F5F8093C5307C
:101680000F900FBEE0E4F8E08581806285830895C5
:101690000E94290B80E090E00895E0E4F8E087E400
:1016A00090E18087918780E8858380EC8683109223
:1016B000E9301092EA301092E8301092C630109261
:1016C000C7301092C53086E598E28093F130909350
:1016D000F23080E00895FB01DC0102C001900D9220
:1016E00041505040D8F70895FB01DC018D910190E5
:1016F00080190110D9F3990B0895A0E0B0E0E3E858
:10170000FBE00C94340EAE014B5F5F4FFA01619128
:101710007191AF018091F1309091F2300E94930B62
:10172000E2E00C944D0EABE0B0E0E9E9FBE00C9494
:10173000240E6C017B018A01FC01168217828381D1
:1017400081FFCCC1CE0101963C01F6019381F701E6
:1017500093FD859193FF81917F01882309F4BAC19C
:10176000853239F493FD859193FF81917F01853214
:1017700029F4B60190E00E948A0DE7CF912C212C2C
:10178000312CFFE1F315D8F08B3279F038F4803248
:1017900079F08332A1F4232D20611DC08D3261F0D8
:1017A000803369F4232D216016C0832D8260382E8A
:1017B000E32DE4603E2E2AC0F32DF8601DC037FCF7
:1017C0002DC020ED280F2A3040F08E32B9F436FCBF
:1017D00081C1232D2064322E19C036FE06C08AE056
:1017E000989E200D1124922E11C0EAE02E9E200D0D
:1017F0001124222EF32DF0623F2E08C08C3621F4E6
:10180000832D8068382E02C0883641F4F70193FD9D
:10181000859193FF81917F018111B3CF982F9F7D97
:101820009554933028F40C5F1F4F9FE399830DC0AC
:10183000833631F0833771F0833509F059C021C008
:10184000F801808189830E5F1F4F88248394912C37
:10185000530113C02801F2E04F0E511CF801A08083
:10186000B18036FE03C0692D70E002C06FEF7FEFDC
:10187000C5010E947F0D4C018201F32DFF773F2EA1
:1018800016C0280122E0420E511CF801A080B18050
:1018900036FE03C0692D70E002C06FEF7FEFC50117
:1018A0000E94740D4C01F32DF0683F2E820133FC31
:1018B0001BC0822D90E088169906B0F4B60180E234
:1018C00090E00E948A0D2A94F4CFF50137FC8591AF
:1018D00037FE81915F01B60190E00E948A0D2110D0
:1018E0002A9421E0821A91088114910471F7E8C0CA
:1018F000843611F0893641F5F80137FE07C0608162
:101900007181828193810C5F1F4F08C0608171815A
:10191000072E000C880B990B0E5F1F4FF32DFF76DF
:101920003F2E97FF09C090958095709561957F4FE8
:101930008F4F9F4FF0683F2E2AE030E0A3010E94B6
:10194000C60D882E861845C0853731F4232D2F7E8D
:10195000B22E2AE030E025C0932D997FB92E8F3624
:10196000C1F018F4883579F0B5C0803719F08837A0
:1019700021F0B0C0E92FE061BE2EB4FE0DC0FB2DFA
:10198000F460BF2E09C034FE0AC0292F2660B22E93
:1019900006C028E030E005C020E130E002C020E1D0
:1019A00032E0F801B7FE07C06081718182819381C6
:1019B0000C5F1F4F06C06081718180E090E00E5F78
:1019C0001F4FA3010E94C60D882E8618FB2DFF779E
:1019D0003F2E36FE0DC0232D2E7FA22E891458F4E3
:1019E00034FE0BC032FC09C0832D8E7EA82E05C0AC
:1019F000B82CA32C03C0B82C01C0B92CA4FE0FC076
:101A0000FE01E80DF11D8081803321F49A2D997E2D
:101A1000A92E09C0A2FE06C0B394B39404C08A2DB7
:101A2000867809F0B394A3FC11C0A0FE06C0B214DE
:101A300088F4280C922C9B180EC0B21460F4B601E6
:101A400080E290E00E948A0DB394F7CFB21418F4AC
:101A50002B1802C0982C212CA4FE10C0B60180E3E4
:101A600090E00E948A0DA2FE17C0A1FC03C088E787
:101A700090E002C088E590E0B6010CC08A2D86781F
:101A800059F0A1FE02C08BE201C080E2A7FC8DE20A
:101A9000B60190E00E948A0D891438F4B60180E303
:101AA00090E00E948A0D9A94F7CF8A94F301E80D92
:101AB000F11D8081B60190E00E948A0D8110F5CF62
:101AC000222009F442CEB60180E290E00E948A0D05
:101AD0002A94F6CFF6018681978102C08FEF9FEF9F
:101AE0002B96E2E10C943D0EFC0105906150704094
:101AF0000110D8F7809590958E0F9F1F0895FC01D7
:101B00006150704001900110D8F7809590958E0F2C
:101B10009F1F08950F931F93CF93DF93FB012381A2
:101B200021FD03C08FEF9FEF2CC022FF16C046811E
:101B30005781248135814217530744F4A081B18134
:101B40009D012F5F3F4F208331838C932681378106
:101B50002F5F3F4F2683378314C08B01EC01FB01BD
:101B60000084F185E02D0995892BE1F6D8011696C0
:101B70008D919C911797019616968D939C9317972C
:101B8000CE01DF91CF911F910F910895FA01AA27FD
:101B9000283051F1203181F1E8946F936E7F6E5FB0
:101BA0007F4F8F4F9F4FAF4FB1E03ED0B4E03CD05E
:101BB000670F781F891F9A1FA11D680F791F8A1F41
:101BC000911DA11D6A0F711D811D911DA11D20D0A8
:101BD00009F468943F912AE0269F11243019305D62
:101BE0003193DEF6CF010895462F4770405D419353
:101BF000B3E00FD0C9F7F6CF462F4F70405D4A33A0
:101C000018F0495D31FD4052419302D0A9F7EACF67
:101C1000B4E0A6959795879577956795BA95C9F796
:101C200000976105710508959B01AC010A2E069489
:101C30005795479537952795BA95C9F7620F731F42
:101C4000841F951FA01D08952F923F924F925F927F
:101C50006F927F928F929F92AF92BF92CF92DF92BC
:101C6000EF92FF920F931F93CF93DF93CDB7DEB721
:101C7000CA1BDB0BCDBFDEBF09942A883988488890
:101C80005F846E847D848C849B84AA84B984C88498
:101C9000DF80EE80FD800C811B81AA81B981CE0F8F
:0E1CA000D11DCDBFDEBFED010895F894FFCF3A
:101CAE0076657273696F6E203D20312E302E300DA9
:101CBE000A0074696D650031383A33303A30300DB0
:101CCE000A00636C692D76657273696F6E006370BE
:101CDE00752D75736167650049444C450073656EDB
:101CEE006465720073656E6465723200636D6420A4
:091CFE0072656365697665720088
:101D07005468697320697320746865204D6573731F
:101D17006167652074776F0D0A00546869732069DD
:101D27007320746865204D6573736167650D0A00DC
:101D370032286162636400000000000000000000B8
:101D4700000000000000000000000000000000008C
:101D57000000A90AA80A0000000200000000480BC2
:041D67000000000078
:00000001FF
